:100D85002D2D2D524649442042617365642D2D2D2C
:100D95000053656375726974792053797374656D51
:100DA500005445414D2D3300736F75722D726F6E72
:100DB5002D616D616E005363616E20596F757220F0
:100DC500436172643A0052666964204E6F2E206951
:100DD500733A0031303033354144383536433100CC
:100DE50020417574686F72697365640020526F6E77
:100DF500697420004D656D6265723A2000256400B6
:100E05003136303041444333363941310020536F58
:100E15007572200031363030414243443134374118
:100E25000020416D616E2000554E415554484F528A
:100E3500495345440054727920416E6F7468657258
:060E45002043617264000D
:0310D900013600DD
:100FD400D2A4C2A37F2C7E01120FE6C2A4C2A37FB7
:020FE400C81E25
:100FE600E4FDFCC3ED9FEE6480F8EC648098501538
:100FF600E4FBFA0BBB00010ABA04F8BBFBF50DBD16
:0510060000010C80DE7A
:01100B0022C2
:1010A400D290C291D2927F057E00120FE6C29222A4
:10109100A907E954F0F5901210A4E9C454F0F590B1
:0310A1000210A496
:0E10B400C290D2927F057E00120FE6C29222F9
:091061007FC87E00120FE67F013A
:10106A00A907E954F0F5901210B4E9C454F0F590C8
:03107A000210B4AD
:0B100C007F0112106A7BFF7A0D79E56E
:101017008B088A09890AAB08AA09A90A120E4BFF8D
:1010270060101210917401250AF50AE43509F509D3
:0310370080E42230
:10107D007F0212106A7F2812106A7F0E12106A7F8B
:04108D000102106AE2
:0C10C200758920759850758DFDD28E2226
:0B10CE003098FD859936C298AF36229D
:100B5C00D2A61210C212107D7BFF7A0D798512106D
:100B6C00177FC012106A7BFF7A0D79961210177FCF
:100B7C00F47E01120FE612107D7BFF7A0D79A6121E
:100B8C0010177FC012106A7BFF7A0D79AD12101707
:100B9C007F907E01120FE67F0112106A7BFF7A0DA7
:100BAC0079BB1210177FC012106AE4F569F569AFB2
:100BBC0069EF3395E0FEC3EF940CEE6480948050A3
:100BCC000E1210CE74232569F8A607056980E0740F
:100BDC00232569F8E4F67F0112106A7BFF7A0D7900
:100BEC00CB1210177FC012106AE4F569AF69EF33AE
:100BFC0095E0FEC3EF940CEE64809480500D74234A
:100C0C002FF8E6FF121091056980E17F647E0012D7
:100C1C000FE6750BFF750C0D750DD8750E00750F65
:100C2C000C7B007A007923120F65EF3395E04F703F
:100C3C00500531E5317002053012100C1210617B39
:100C4C00FF7A0D79F11210177FC012106A7BFF7AB0
:100C5C000D79F9121017750BFF750C0E750D0285B9
:100C6C00300E85310F7B007A00792212085C7B00F4
:100C7C007A007922121017120FD4C2A4D2A3020B3D
:100C8C00A3750BFF750C0E750D05750E00750F0C0D
:100C9C007B007A007923120F65EF3395E04F7036A5
:100CAC000533E5337002053212100C1210617BFF14
:100CBC007A0E79121210177FC012106A7BFF7A0D10
:100CCC0079F9121017750BFF750C0E750D02853224
:100CDC000E85330F8053750BFF750C0E750D197542
:100CEC000E00750F0C7B007A007923120F65EF3321
:100CFC0095E04F705A0535E5357002053412100C2D
:100D0C001210617BFF7A0E79261210177FC0121019
:100D1C006A7BFF7A0D79F9121017750BFF750C0EA3
:100D2C00750D0285340E85350F7B007A0079221201
:100D3C00085C7B007A007922121017120FD4C2A41F
:100D4C00D2A37F2C0E120FE6C2A4C2A3020BA37F68
:100D5C000112106A7BFF7A0E792D1210177FC012C8
:100D6C00106A7BFF7A0E793A121017C2A67F2C7E7E
:090D7C0001120FE6D2A6020BA33E
:03000000020ED914
:0C0ED900787FE4F6D8FD758169020F20D7
:100E4B00BB010689828A83E0225002E722BBFE02A5
:090E5B00E32289828A83E49322D8
:10080000E517240BF8E60517227808300702780B65
:10081000E475F001120EA3020E4B2000EB7F2ED2E6
:10082000008018EF540F2490D43440D4FF30040BD0
:10083000EF24BFB41A0050032461FFE518600215CD
:1008400018051BE51B7002051A30070D7808E475C2
:10085000F001120EA3EF020E9102103A7403D207B8
:100860008003E4C207F5178B088A09890AE4F518A2
:10087000F51AF51BE51860077F2012083B80F57517
:1008800019FFC201C200C202C203C205C206C208E9
:10089000120809FF700D3007057F0012084CAF1BCE
:1008A000AE1A22B4255FC2D5C204120809FF24D0B3
:1008B000B40A00501A75F00A781830D50508B6FF4A
:1008C0000106C6A426F620D5047002D20380D924DE
:1008D000CFB41A00EF5004C2E5D204020A4CD20190
:1008E00080C6D20080C0D20280BCD2D580BAD205E8
:1008F00080B47F2012083B2002077401B518004025
:10090000F1120800FF12083B020874D208D20680D8
:1009100095120800FB120800FA120800F94A4B7001
:1009200006791D7A0B7BFF20022EE518602A7E00D7
:100930008E82758300120E6460060EEE651970F0EB
:10094000C2D5EBC0E0EAC0E0E9C0E0EE120A93D005
:10095000E0F9D0E0FAD0E0FB120E4BFF60AAEBC04A
:10096000E0EAC0E0E9C0E012083BD0E02401F9D0A1
:10097000E03400FAD0E0FBE5190460DCD519D98039
:10098000877BFF7A0A798FD202809C791080027966
:1009900008C206C2088008D2D5790A8004790AC242
:1009A000D5E519047002F519E4FAFDFEFF120800FE
:1009B000FC7B08200113120800FD7B1030000A1296
:1009C0000800FE120800FF7B20EC3382D592D55040
:1009D00013C3E43000069FFFE49EFEE42001039D64
:1009E000FDE49CFCE4CBF8C201EC700CCFCECDCC86
:1009F000E824F8F870F38017C3EF33FFEE33FEED11
:100A000033FDEC33FCEB33FB994002FB0FD8E9EBF1
:100A1000300105F8D0E0C448B201C0E00AEC4D4E08
:100A20004F78207B0070C2EAB5190040BCC0E012CC
:100A30000A95D0F0D0E0200104C4C0E0C4B201C0E7
:100A4000F0120824D0F0D5F0EB020874120EB309AE
:100A50001153098B5808E24C08DE42098F4F099761
:0F0A60004409974908F743099D550981460981C3
:100A6F00450981470B3D5008E62D08EA2E090D2B4D
:100A7F0008EE23090B200B262A08A64800000905BB
:100A8F003F3F3F00790AA2D5200314300509B91062
:100A9F00020404B9080104A2D52006025001042063
:100AAF0002689202B518005034C0E07F203003195D
:100ABF007F30A20272067205500F120AECC202C2F8
:100ACF0006C205C2087F30800F300503E9C0E0126F
:100ADF00083B300503D0E0F9D0E0B518CC3005174E
:100AEF007F30B9100C12083B7F583004077F788095
:100AFF0003B9080312083B3002057F2D02083B7F24
:100B0F00202008F87F2B2006F322920280CF286E38
:100B1F00756C6C2900D2011208003001F8C20178FF
:100B2F001830D50108F60208A62D5043495812086F
:100B3F00002403B405004001E4900B389312082CF5
:0D0B4F00743A12082CD20375180402098BA9
:100F65008B088A09890AAB0BAA0CA90D120E4BFE38
:100F7500AB08AA09A90A120E4BFF6E702BEF600D84
:100F8500E50F150F7002150E14450E70037F002234
:100F95007401250AF50AE43509F5097401250DF5ED
:100FA5000DE4350CF50C80BEAB08AA09A90A120E92
:100FB5004BFDD3EE6480F8ED64809840037F0122F9
:0F0FC500AB0BAA0CA90D120E4BFFC3ED9FFF2221
:100EE500020B5CE493A3F8E493A34003F68001F2BC
:100EF50008DFF48029E493A3F85407240CC8C3330E
:100F0500C4540F4420C8834004F456800146F6DFDC
:100F1500E4800B01020408102040809010D9E47E83
:100F2500019360BCA3FF543F30E509541FFEE493D1
:100F3500A360010ECF54C025E060A840B8E493A398
:100F4500FAE493A3F8E493A3C8C582C8CAC583CAC3
:100F5500F0A3C8C582C8CAC583CADFE9DEE780BE7B
:0110DC000013
:100E6400BB010CE58229F582E5833AF583E0225043
:100E740006E92582F8E622BBFE06E92582F8E2228D
:0D0E8400E58229F582E5833AF583E49322A7
:100E9100BB010689828A83F0225002F722BBFE0140
:020EA100F3223A
:100EA300FAE6FB0808E6F925F0F618E6CA3AF62250
:100EB300D083D082F8E4937012740193700DA3A3CE
:100EC30093F8740193F5828883E4737402936860E2
:060ED300EFA3A3A380DFE2
:10103A00EFB40A07740D121045740A309811A89972
:10104A00B8130CC2983098FDA899C298B811F63016
:07105A0099FDC299F59922EE
:00000001FF
